:100000000C9446000C9465000C9465000C946500FB
:100010000C9465000C9465000C9465000C946500CC
:100020000C9465000C9465000C9465000C946500BC
:100030000C9465000C94E3000C9465000C9465002E
:100040000C9465000C9465000C9465000C9465009C
:100050000C9465000C9465000C9465000C9465008C
:100060000C9465000C9465000C9465000C9465007C
:100070000C9465000C9465000C9465000C9465006C
:100080000C9465000C9465000C94650011241FBE4F
:10009000CFEFD0E4DEBFCDBF11E0A0E0B1E0E0E102
:1000A000FCE000E00BBF02C007900D92AE31B1073B
:1000B000D9F721E0AEE1B1E001C01D92AC35B20745
:1000C000E1F70E9428040C9406060C940000CF93DC
:1000D000DF9300D000D0CDB7DEB769837A838B83FE
:1000E0009C8389819A81AB81BC818093000190932C
:1000F0000101A0930201B09303018091000190914E
:100100000101A0910201B091030180931F0190931E
:100110002001A0932101B093220100000F900F90C5
:100120000F900F90DF91CF910895CF93DF93CDB7CC
:10013000DEB781E890E02BE0FC01208388E890E0C6
:100140002DE730E0FC01318320838FE690E022E050
:10015000FC01208384E890E0FC01118210828091F0
:10016000000190910101A0910201B09103018093DF
:100170001F0190932001A0932101B09322018FE5EC
:1001800090E02FE530E0F90120812068FC01208318
:100190000000DF91CF910895CF93DF93CDB7DEB705
:1001A00081E890E0FC0110820000DF91CF9108957A
:1001B000CF93DF93CDB7DEB781E080931E010000BF
:1001C000DF91CF9108951F920F9200905F000F92E0
:1001D000112400905B000F922F933F934F935F93F6
:1001E0006F937F938F939F93AF93BF93EF93FF93FF
:1001F000CF93DF93CDB7DEB780911F01909120019F
:10020000A0912101B09122010197A109B109809328
:100210001F0190932001A0932101B09322018091AE
:100220001F0190912001A0912101B0912201892B01
:100230008A2B8B2B91F40E94D80080910001909121
:100240000101A0910201B091030180931F019093DD
:100250002001A0932101B09322010000DF91CF91F2
:10026000FF91EF91BF91AF919F918F917F916F918E
:100270005F914F913F912F910F9000925B000F90F3
:1002800000925F000F901F901895CF93DF93CDB72A
:10029000DEB72C970FB6F894DEBF0FBECDBF6D83CF
:1002A0007E838F83988729873A874B875C878D81E8
:1002B0009E81AF81B88529853A854B855C85BC01D7
:1002C000CD010E94E405DC01CB0189839A83AB83D5
:1002D000BC8389819A81AB81BC81892B8A2B8B2B32
:1002E00029F489859A85AB85BC8511C089859A8555
:1002F000AB85BC858D839E83AF83B88789819A81C6
:10030000AB81BC8189879A87AB87BC87D0CFBC0182
:10031000CD012C960FB6F894DEBF0FBECDBFDF9196
:10032000CF910895CF93DF9300D01F92CDB7DEB762
:1003300089837B836A8389818A3031F48A819B81B6
:10034000BC018DE00E94920180EC90E0FC01808174
:10035000882F90E080729927892BB1F386EC90E08A
:100360002981FC01208380E090E00F900F900F9096
:10037000DF91CF910895CF93DF93CDB7DEB78AE7B2
:1003800090E02AE730E0F9012081206EFC01208313
:100390000000DF91CF910895CF93DF9300D000D07C
:1003A000CDB7DEB78B836C838C818130C1F51A8227
:1003B000198227C088E290E028E0FC01208388E2CF
:1003C00090E028E230E0F9012081422F2B81222F9A
:1003D00030E0098002C0359527950A94E2F7217034
:1003E000242BFC01208388E290E028E230E0F90130
:1003F00020812260FC01208389819A8101969A8361
:10040000898389819A810897ACF288E290E028E29A
:1004100030E0F90120812460FC0120833AC08C8106
:100420008230B9F51A82198227C088E290E020E272
:10043000FC01208388E290E028E230E0F90120818D
:10044000422F2B81222F30E0098002C0359527955D
:100450000A94E2F72170242BFC01208388E290E0CB
:1004600028E230E0F90120812260FC0120838981AB
:100470009A8101969A83898389819A810897ACF23F
:1004800088E290E028E230E0F90120812061FC015F
:10049000208388E290E028E230E0F9012081FC012D
:1004A000208300000F900F900F900F90DF91CF915D
:1004B0000895CF93DF931F92CDB7DEB7898380E88D
:1004C0009981981719F08981880F898389810F9004
:1004D000DF91CF910895CF93DF931F92CDB7DEB711
:1004E000898381E09981981719F08981869589839C
:1004F00089810F90DF91CF910895CF93DF931F9261
:10050000CDB7DEB789838EEF9981981721F0898165
:1005100086958068898389810F90DF91CF910895B6
:10052000CF93DF931F92CDB7DEB789838FEE99818A
:10053000981739F08981882F90E0880F991F816082
:10054000898389810F90DF91CF910895CF93DF93B5
:1005500000D0CDB7DEB79A83898389819A81892BB0
:1005600009F065C080915601803451F481E0809398
:100570002301809156010E946B028093560123C093
:1005800080915601823051F48FEF80932301809146
:1005900056010E9459028093560115C08091230193
:1005A00018163CF4809156010E946B02809356010C
:1005B0000AC080912301882334F4809156010E945F
:1005C000590280935601809157018E3F51F48FEF6D
:1005D00080932401809157010E94900280935701DB
:1005E00023C0809157018F3E51F481E08093240114
:1005F000809157010E947D028093570115C0809120
:10060000240118163CF4809157010E947D028093CA
:1006100057010AC080912401882334F48091570146
:100620000E949002809357011A8219820FC01A8289
:10063000198288E0809356018FEF809323018BEF1E
:100640008093570181E080932401000089819A8181
:100650000F900F90DF91CF910895CF93DF9300D04B
:10066000CDB7DEB79A83898389819A81892B79F501
:1006700088E790E0FC01808191819093260180932E
:10068000250180915B01883F71F080912501909157
:1006900026018331924038F080915B010E947D02F7
:1006A00080935B0111C080915B01833E69F0809172
:1006B000250190912601843F914030F480915B01A7
:1006C0000E94900280935B011A82198209C01A82EB
:1006D000198281E08093590181EF80935B010000D2
:1006E00089819A810F900F90DF91CF910895CF93D8
:1006F000DF9300D0CDB7DEB79A83898389819A8151
:10070000892B81F580915801883F99F083E290E030
:10071000FC018081882F90E08095909587709927C3
:10072000029739F4809158010E947D02809358010C
:1007300016C080915801833E91F083E290E0FC0165
:100740008081882F90E080959095877099270197F8
:1007500031F4809158010E949002809358011A82CE
:10076000198209C01A82198280E880935A0181EFA8
:1007700080935801000089819A810F900F90DF913A
:10078000CF910895CF93DF9300D0CDB7DEB79A8392
:10079000898389819A81892B19F41A82198206C06A
:1007A0001A82198280E880932701000089819A814A
:1007B000892B09F046C080912701803849F4809147
:1007C0005A0180932801809158018093290122C009
:1007D00080912701813049F480915901809328014B
:1007E00080915B018093290115C090915601809101
:1007F00027018923882349F080915601809328019D
:10080000809157018093290105C0109228018FEF34
:1008100080932901809127018695809327018091FB
:100820002701882319F480E880932701809128010B
:1008300061E00E94CC018091290162E00E94CC011C
:10084000000089819A810F900F90DF91CF910895D8
:100850000F931F93CF93DF93CDB7DEB761970FB69A
:10086000F894DEBF0FBECDBF84E290E0FC011082A1
:1008700085E290E02FEFFC01208387E290E02FEFEC
:10088000FC01208388E290E0FC0110820E94BB0101
:1008900088E0E6E1F1E0DE011A9601900D928A957A
:1008A000E1F785E090E098878F838FEF89878985CE
:1008B00080932A018AEF90E0A0E0B0E080932B01C2
:1008C00090932C01A0932D01B0932E0180912B01C8
:1008D00090912C01A0912D01B0912E0180932F01B8
:1008E00090933001A0933101B093320186EA92E0F7
:1008F000909334018093330189858093350186E993
:1009000090E0A0E0B0E08093360190933701A0938F
:100910003801B09339018091360190913701A0914F
:100920003801B091390180933A0190933B01A09333
:100930003C01B0933D018DE293E090933F018093A1
:100940003E0189858093400186E990E0A0E0B0E017
:100950008093410190934201A0934301B0934401DD
:100960008091410190914201A0914301B0914401D5
:100970008093450190934601A0934701B0934801AD
:1009800087E793E090934A0180934901898580939A
:100990004B0181E090E0A0E0B0E080934C019093A7
:1009A0004D01A0934E01B0934F0180914C01909165
:1009B0004D01A0914E01B0914F0180935001909351
:1009C0005101A0935201B093530182EC93E09093B4
:1009D0005501809354018A859B85FC018181928118
:1009E000A381B48189839A83AB83BC8381E090E047
:1009F0009E838D8325C08D819E81880F991F9E01C6
:100A00002F5F3F4F820F931F0996FC0180819181D8
:100A1000FC01218132814381548189819A81AB819A
:100A2000BC81BC01CD010E944501DC01CB01898361
:100A30009A83AB83BC838D819E8101969E838D8337
:100A40002D813E818F81988528173907A0F28981F1
:100A50009A81AB81BC81BC01CD010E9467000E94DC
:100A600095001E821D82A0C08D819E81880F991FD6
:100A70009E012F5F3F4F820F931F0996FC018081DB
:100A80009181FC0125813681478150858D819E8130
:100A9000880F991FBE016F5F7F4F860F971F0996C2
:100AA000FC0180819181FC0181819281A381B481CB
:100AB000281739074A075B0709F045C08D819E81D9
:100AC000880F991F9E012F5F3F4F820F931F09963A
:100AD000FC01008111818D819E81880F991F9E01EB
:100AE0002F5F3F4F820F931F0996FC0180819181F8
:100AF000FC01218532858D819E81880F991FAE0171
:100B00004F5F5F4F840F951F0996FC018081918193
:100B1000FC018081082E000C990BF9010995F80160
:100B200080838D819E81880F991F9E012F5F3F4F8B
:100B3000820F931F0996FC0180819181FC0115822F
:100B40001682178210868D819E81880F991F9E01C3
:100B50002F5F3F4F820F931F0996FC0160817181C7
:100B60008D819E81880F991F9E012F5F3F4F820FBD
:100B7000931F0996FC0180819181FC0125813681BA
:100B80004781508589819A81AB81BC81820F931FF7
:100B9000A41FB51FFB0185839683A783B0878D8132
:100BA0009E8101969E838D832D813E818F819885C4
:100BB0002817390708F458CF000080911E018823B8
:100BC000E1F310921E014DCFA1E21A2EAA1BBB1B0E
:100BD000FD010DC0AA1FBB1FEE1FFF1FA217B30709
:100BE000E407F50720F0A21BB30BE40BF50B661F1F
:100BF000771F881F991F1A9469F7609570958095E3
:100C000090959B01AC01BD01CF010895F894FFCFF1
:100C1000010000000000000200000000920100003E
:0E0C20000000FEEF80012A01350140014B016A
:00000001FF
