:100000000C9446000C9465000C9465000C946500FB
:100010000C9465000C9465000C9465000C946500CC
:100020000C9465000C9465000C9465000C946500BC
:100030000C9465000C94E3000C9465000C9465002E
:100040000C9465000C9465000C9465000C9465009C
:100050000C9465000C9465000C9465000C9465008C
:100060000C9465000C9465000C9465000C9465007C
:100070000C9465000C9465000C9465000C9465006C
:100080000C9465000C9465000C94650011241FBE4F
:10009000CFEFD0E4DEBFCDBF11E0A0E0B1E0EAEDEC
:1000A000F3E100E00BBF02C007900D92A032B10750
:1000B000D9F721E0A0E2B1E001C01D92AF36B2074E
:1000C000E1F70E94E8070C94EB090C940000CF9331
:1000D000DF9300D000D0CDB7DEB769837A838B83FE
:1000E0009C8389819A81AB81BC818093000190932C
:1000F0000101A0930201B09303018091000190914E
:100100000101A0910201B09103018093210190931C
:100110002201A0932301B093240100000F900F90BF
:100120000F900F90DF91CF910895CF93DF93CDB7CC
:10013000DEB781E890E02BE0FC01208388E890E0C6
:100140002DE730E0FC01318320838FE690E022E050
:10015000FC01208384E890E0FC01118210828091F0
:10016000000190910101A0910201B09103018093DF
:10017000210190932201A0932301B09324018FE5E4
:1001800090E02FE530E0F90120812068FC01208318
:100190000000DF91CF910895CF93DF93CDB7DEB705
:1001A00081E890E0FC0110820000DF91CF9108957A
:1001B000CF93DF93CDB7DEB781E0809320010000BD
:1001C000DF91CF9108951F920F9200905F000F92E0
:1001D000112400905B000F922F933F934F935F93F6
:1001E0006F937F938F939F93AF93BF93EF93FF93FF
:1001F000CF93DF93CDB7DEB780912101909122019B
:10020000A0912301B09124010197A109B109809324
:10021000210190932201A0932301B09324018091A6
:10022000210190912201A0912301B0912401892BF9
:100230008A2B8B2B91F40E94D80080910001909121
:100240000101A0910201B0910301809321019093DB
:100250002201A0932301B09324010000DF91CF91EC
:10026000FF91EF91BF91AF919F918F917F916F918E
:100270005F914F913F912F910F9000925B000F90F3
:1002800000925F000F901F901895CF93DF93CDB72A
:10029000DEB72C970FB6F894DEBF0FBECDBF6D83CF
:1002A0007E838F83988729873A874B875C878D81E8
:1002B0009E81AF81B88529853A854B855C85BC01D7
:1002C000CD010E94C909DC01CB0189839A83AB83EC
:1002D000BC8389819A81AB81BC81892B8A2B8B2B32
:1002E00029F489859A85AB85BC8511C089859A8555
:1002F000AB85BC858D839E83AF83B88789819A81C6
:10030000AB81BC8189879A87AB87BC87D0CFBC0182
:10031000CD012C960FB6F894DEBF0FBECDBFDF9196
:10032000CF910895CF93DF9300D01F92CDB7DEB762
:1003300089837B836A8389818A3031F48A819B81B6
:10034000BC018DE00E94920180EC90E0FC01808174
:10035000882F90E080729927892BB1F386EC90E08A
:100360002981FC01208380E090E00F900F900F9096
:10037000DF91CF910895CF93DF93CDB7DEB78AE7B2
:1003800090E02AE730E0F9012081206EFC01208313
:100390000000DF91CF910895CF93DF9300D000D07C
:1003A000CDB7DEB78B836C838C818130C1F51A8227
:1003B000198227C088E290E028E0FC01208388E2CF
:1003C00090E028E230E0F9012081422F2B81222F9A
:1003D00030E0098002C0359527950A94E2F7217034
:1003E000242BFC01208388E290E028E230E0F90130
:1003F00020812260FC01208389819A8101969A8361
:10040000898389819A810897ACF288E290E028E29A
:1004100030E0F90120812460FC0120833AC08C8106
:100420008230B9F51A82198227C088E290E020E272
:10043000FC01208388E290E028E230E0F90120818D
:10044000422F2B81222F30E0098002C0359527955D
:100450000A94E2F72170242BFC01208388E290E0CB
:1004600028E230E0F90120812260FC0120838981AB
:100470009A8101969A83898389819A810897ACF23F
:1004800088E290E028E230E0F90120812061FC015F
:10049000208388E290E028E230E0F9012081FC012D
:1004A000208300000F900F900F900F90DF91CF915D
:1004B0000895CF93DF931F92CDB7DEB7898380E88D
:1004C0009981981719F08981880F898389810F9004
:1004D000DF91CF910895CF93DF931F92CDB7DEB711
:1004E000898381E09981981719F08981869589839C
:1004F00089810F90DF91CF910895CF93DF931F9261
:10050000CDB7DEB789838EEF9981981721F0898165
:1005100086958068898389810F90DF91CF910895B6
:10052000CF93DF931F92CDB7DEB789838FEE99818A
:10053000981739F08981882F90E0880F991F816082
:10054000898389810F90DF91CF910895CF93DF93B5
:1005500000D0CDB7DEB79A83898389819A81892BB0
:1005600009F05BC09091250180916B01981708F408
:1005700046C080916D0118163CF4809165010E947F
:100580006B02809365010AC080916D01882334F469
:10059000809165010E9459028093650180916701F5
:1005A0008E3F51F48FEF80936901809167010E9423
:1005B00090028093670123C0809167018F3E51F4C0
:1005C00081E080936901809167010E947D028093A0
:1005D000670115C08091690118163CF4809167018C
:1005E0000E947D02809367010AC08091690188237F
:1005F00034F4809167010E9490028093670180919A
:1006000025018F5F8093250180912501843010F0B2
:10061000109225011A82198214C01A82198288E068
:100620008093650181E080936D018BEF809367017A
:100630001092690183E08093250183E080936B0130
:10064000000089819A810F900F90DF91CF910895DA
:10065000CF93DF9300D0CDB7DEB79A8389838981AA
:100660009A81892B79F588E790E0FC01808191815E
:10067000909327018093260180916E01883F71F04D
:1006800080912601909127018331924038F080912A
:100690006E010E947D0280936E0111C080916E01F7
:1006A000833E69F08091260190912701843F91401B
:1006B00030F480916E010E94900280936E011A8244
:1006C000198209C01A82198281E080936A0181EF40
:1006D00080936E01000089819A810F900F90DF91C5
:1006E000CF910895CF93DF9300D0CDB7DEB79A8333
:1006F000898389819A81892B81F580916801883F5E
:1007000099F083E290E0FC018081882F90E0809551
:10071000909587709927029739F4809168010E941B
:100720007D028093680116C080916801833E91F03C
:1007300083E290E0FC018081882F90E08095909585
:1007400087709927019731F4809168010E94900287
:10075000809368011A82198209C01A82198280E87E
:1007600080936C0181EF80936801000089819A81F8
:100770000F900F90DF91CF910895CF93DF9300D02A
:10078000CDB7DEB79A83898389819A81892B09F055
:100790008FC380916501823031F080916501803492
:1007A00011F0109228019091290180916E01981703
:1007B00009F45AC080916501823009F055C08091DA
:1007C0002801882309F050C090916E018091290181
:1007D000891790F480916901813021F0809169013D
:1007E000882351F480916B018230D8F180916B01A4
:1007F000815080936B0135C090916E0180912901E9
:10080000891770F4809169018F3F51F480916B01D9
:10081000833038F580916B018F5F80936B0121C02D
:1008200090916E0180912901981790F4809169014F
:100830008F3F21F080916901882351F480916B01F1
:10084000823078F080916B01815080936B0109C0F8
:1008500080916B01833028F480916B018F5F8093CE
:100860006B0181E08093280180916E01883F09F03F
:1008700061C080916501823009F05CC080916701A0
:100880008E3F39F48FEF80936D018FEF8093690174
:1008900042C1809167018D3FC1F48FEF80936D015C
:1008A0001092690180916B01833008F034C180910E
:1008B0002801882309F02FC180916B018F5F8093FD
:1008C0006B0181E08093280126C1809167018B3FF5
:1008D00061F48FEF80936D0180916901882309F0A5
:1008E0001AC18FEF8093690116C180916701873F1C
:1008F000D9F4809169018823B9F08FEF80936D015D
:100900008FEF8093690180916B01823088F0809134
:100910002801882369F480916B01815080936B01D9
:1009200081E08093280104C082E080936601F3C0D7
:100930000000F1C080916E01813F09F089C0809173
:100940006501823009F084C0809167018E3FE9F42F
:10095000809169018823C9F08FEF80936D0181E058
:100960008093690180916B01823008F46DC08091A1
:100970002801882309F068C080916B018150809321
:100980006B0181E0809328015FC0809167018D3FFA
:1009900061F48FEF80936D0180916901882309F0E4
:1009A000BCC081E080936901B8C0809167018B3F32
:1009B000C1F48FEF80936D011092690180916B01FA
:1009C000833008F0AAC080912801882309F0A5C0CF
:1009D00080916B018F5F80936B0181E08093280190
:1009E0009CC080916701873F61F48FEF80936D0118
:1009F00080916901882309F090C08FEF809369018D
:100A00008CC0809167018F3ED9F480916901882361
:100A1000B9F08FEF80936D018FEF80936901809122
:100A20006B01823098F080912801882379F48091BD
:100A30006B01815080936B0181E08093280106C097
:100A400082E08093660169C0000067C0000065C055
:100A500080916E01833E09F063C080916501823010
:100A600009F05EC0809167018D3FE9F480916901D2
:100A70008823C9F08FEF80936D0181E08093690135
:100A800080916B01823008F44AC08091280188234C
:100A900009F045C080916B01815080936B0181E02A
:100AA000809328013CC0809167018B3F59F48FEF00
:100AB00080936D0180916901882391F581E0809395
:100AC00069012EC080916701873FB1F48FEF809359
:100AD0006D011092690180916B01833008F580915E
:100AE00028018823E9F480916B018F5F80936B016B
:100AF00081E08093280114C0809167018F3E39F412
:100B00008FEF80936D0181E08093690109C082E0DD
:100B10008093660105C0000003C0000001C0000012
:100B200090912A0180916801981709F45AC0809128
:100B30006501803409F055C080912801882309F0AF
:100B400050C09091680180912A01891790F480919A
:100B50006901813021F080916901882351F48091ED
:100B60006B018230D8F180916B01815080936B01D1
:100B700035C09091680180912A01891770F48091A5
:100B800069018F3F51F480916B01833038F580917A
:100B90006B018F5F80936B0121C090916801809100
:100BA0002A01981790F4809169018F3F21F080917C
:100BB0006901882351F480916B01823078F0809133
:100BC0006B01815080936B0109C080916B01833070
:100BD00028F480916B018F5F80936B0181E080939B
:100BE000280180916801883F09F061C0809165010A
:100BF000803409F05CC0809167018E3F39F481E058
:100C000080936D018FEF8093690142C180916701EC
:100C10008D3FC1F481E080936D0110926901809154
:100C20006B01833008F034C180912801882309F0DA
:100C30002FC180916B018F5F80936B0181E0809366
:100C4000280126C1809167018B3F61F481E0809388
:100C50006D0180916901882309F01AC18FEF80939B
:100C6000690116C180916701873FD9F480916901BC
:100C70008823B9F081E080936D018FEF8093690143
:100C800080916B01823088F080912801882369F47B
:100C900080916B01815080936B0181E080932801EA
:100CA00004C081E080936601F3C00000F1C0809130
:100CB0006801813F09F089C080916501803409F0A5
:100CC00084C0809167018E3FE9F480916901882397
:100CD000C9F081E080936D0181E08093690180918A
:100CE0006B01823008F46DC080912801882309F0DF
:100CF00068C080916B01815080936B0181E080938B
:100D000028015FC0809167018D3F61F481E080938D
:100D10006D0180916901882309F0BCC081E0809356
:100D20006901B8C0809167018B3FC1F481E0809375
:100D30006D011092690180916B01833008F0AAC0A7
:100D400080912801882309F0A5C080916B018F5FF5
:100D500080936B0181E0809328019CC080916701A2
:100D6000873F61F481E080936D0180916901882360
:100D700009F090C08FEF809369018CC0809167016A
:100D80008F3ED9F4809169018823B9F081E0809386
:100D90006D018FEF8093690180916B01823098F033
:100DA00080912801882379F480916B018150809390
:100DB0006B0181E08093280106C081E08093660189
:100DC00069C0000067C0000065C080916801833E73
:100DD00009F063C080916501803409F05EC08091A4
:100DE00067018D3FE9F4809169018823C9F081E0B2
:100DF00080936D0181E08093690180916B01823065
:100E000008F44AC080912801882309F045C08091E8
:100E10006B01815080936B0181E0809328013CC07D
:100E2000809167018B3F59F481E080936D0180913F
:100E30006901882391F581E0809369012EC080913A
:100E40006701873FB1F481E080936D0110926901E1
:100E500080916B01833008F5809128018823E9F4A3
:100E600080916B018F5F80936B0181E080932801FB
:100E700014C0809167018F3E39F481E080936D0149
:100E800081E08093690109C081E08093660105C01B
:100E9000000003C0000001C0000080916801809341
:100EA0002A0180916E01809329011A8219820DC056
:100EB0001A821982109266011092280181EF8093A4
:100EC0002A0181EF80932901000089819A810F9086
:100ED0000F90DF91CF910895CF93DF9300D0CDB7DE
:100EE000DEB79A83898389819A81892B19F41A82C2
:100EF000198206C01A82198280E880932B010000B3
:100F000089819A81892B09F05CC0809166018823D0
:100F1000E1F580912B01803849F480916C01809338
:100F20002C018091680180932D0122C080912B01BA
:100F3000813049F480916A0180932C0180916E0187
:100F400080932D0115C09091650180912B0189231B
:100F5000882349F08091650180932C01809167017D
:100F600080932D0105C010922C018FEF80932D01ED
:100F700080912B01869580932B0180912B018823F2
:100F8000A9F480E880932B0111C080916601823022
:100F900039F480EF80932C0180EE80932D0106C000
:100FA0008FE080932C0180EE80932D0180912C01A5
:100FB00061E00E94CC0180912D0162E00E94CC0191
:100FC000000089819A810F900F90DF91CF91089551
:100FD0000F931F93CF93DF93CDB7DEB763970FB611
:100FE000F894DEBF0FBECDBF84E290E0FC0110821A
:100FF00085E290E02FEFFC01208387E290E02FEF65
:10100000FC01208388E290E0FC0110820E94BB0179
:101010008AE0E6E1F1E0DE011A9601900D928A95F0
:10102000E1F785E090E098878F838FEF8987898546
:1010300080932E018BE490E0A0E0B0E080932F013C
:1010400090933001A0933101B093320180912F0130
:1010500090913001A0913101B09132018093330120
:1010600090933401A0933501B093360186EA92E063
:10107000909338018093370189858093390186E9FF
:1010800090E0A0E0B0E080933A0190933B01A09300
:101090003C01B0933D0180913A0190913B01A091B8
:1010A0003C01B0913D0180933E0190933F01A0939C
:1010B0004001B093410188E293E090934301809313
:1010C000420189858093440186E990E0A0E0B0E088
:1010D0008093450190934601A0934701B093480146
:1010E0008091450190914601A0914701B09148013E
:1010F0008093490190934A01A0934B01B0934C0116
:1011000082E793E090934E0180934D01898580930F
:101110004F0182E390E0A0E0B0E080935001909313
:101120005101A0935201B0935301809150019091CD
:101130005101A0915201B0915301809354019093B9
:101140005501A0935601B09357018DEB93E0909316
:10115000590180935801898580935A0181E090E07C
:10116000A0E0B0E080935B0190935C01A0935D01EF
:10117000B0935E0180915B0190915C01A0915D0153
:10118000B0915E0180935F0190936001A093610133
:10119000B09362018CE697E09093640180936301C1
:1011A0008A859B85FC0181819281A381B481898399
:1011B0009A83AB83BC8381E090E09E838D8325C0BE
:1011C0008D819E81880F991F9E012F5F3F4F820F57
:1011D000931F0996FC0180819181FC01218132815C
:1011E0004381548189819A81AB81BC81BC01CD014D
:1011F0000E944501DC01CB0189839A83AB83BC83C8
:101200008D819E8101969E838D832D813E818F816C
:10121000988528173907A0F289819A81AB81BC8112
:10122000BC01CD010E9467000E9495001E821D82B4
:10123000A0C08D819E81880F991F9E012F5F3F4F17
:10124000820F931F0996FC0180819181FC01258109
:101250003681478150858D819E81880F991FBE01FF
:101260006F5F7F4F860F971F0996FC0180819181E8
:10127000FC0181819281A381B481281739074A0733
:101280005B0709F045C08D819E81880F991F9E01E3
:101290002F5F3F4F820F931F0996FC010081118140
:1012A0008D819E81880F991F9E012F5F3F4F820F76
:1012B000931F0996FC0180819181FC012185328573
:1012C0008D819E81880F991FAE014F5F5F4F840F04
:1012D000951F0996FC0180819181FC018081082E77
:1012E000000C990BF9010995F80180838D819E818D
:1012F000880F991F9E012F5F3F4F820F931F099602
:10130000FC0180819181FC01158216821782108672
:101310008D819E81880F991F9E012F5F3F4F820F05
:10132000931F0996FC01608171818D819E81880FD8
:10133000991F9E012F5F3F4F820F931F0996FC015B
:1013400080819181FC012581368147815085898189
:101350009A81AB81BC81820F931FA41FB51FFB0133
:1013600085839683A783B0878D819E8101969E8316
:101370008D832D813E818F8198852817390708F448
:1013800058CF0000809120018823E1F310922001C2
:101390004DCFA1E21A2EAA1BBB1BFD010DC0AA1F37
:1013A000BB1FEE1FFF1FA217B307E407F50720F0CE
:1013B000A21BB30BE40BF50B661F771F881F991F49
:1013C0001A9469F760957095809590959B01AC0192
:0A13D000BD01CF010895F894FFCF8E
:1013DA00010000000000000200000000920100006D
:1013EA000000FEEF80012E01390144014F015A012C
:00000001FF
