:100000000C9446000C9465000C9465000C946500FB
:100010000C9465000C9465000C9465000C946500CC
:100020000C9465000C9465000C9465000C946500BC
:100030000C9465000C94E3000C9465000C9465002E
:100040000C9465000C9465000C9465000C9465009C
:100050000C9465000C9465000C9465000C9465008C
:100060000C9465000C9465000C9465000C9465007C
:100070000C9465000C9465000C9465000C9465006C
:100080000C9465000C9465000C94650011241FBE4F
:10009000CFEFD0E4DEBFCDBF11E0A0E0B1E0ECEEE9
:1000A000F6E100E00BBF02C007900D92A432B10749
:1000B000D9F721E0A4E2B1E001C01D92A537B20753
:1000C000E1F70E94AE080C94740B0C940000CF93DF
:1000D000DF9300D000D0CDB7DEB769837A838B83FE
:1000E0009C8389819A81AB81BC818093000190932C
:1000F0000101A0930201B09303018091000190914E
:100100000101A0910201B091030180932501909318
:100110002601A0932701B093280100000F900F90B3
:100120000F900F90DF91CF910895CF93DF93CDB7CC
:10013000DEB781E890E02BE0FC01208388E890E0C6
:100140002DE730E0FC01318320838FE690E022E050
:10015000FC01208384E890E0FC01118210828091F0
:10016000000190910101A0910201B09103018093DF
:10017000250190932601A0932701B09328018FE5D4
:1001800090E02FE530E0F90120812068FC01208318
:100190000000DF91CF910895CF93DF93CDB7DEB705
:1001A00081E890E0FC0110820000DF91CF9108957A
:1001B000CF93DF93CDB7DEB781E0809324010000B9
:1001C000DF91CF9108951F920F9200905F000F92E0
:1001D000112400905B000F922F933F934F935F93F6
:1001E0006F937F938F939F93AF93BF93EF93FF93FF
:1001F000CF93DF93CDB7DEB7809125019091260193
:10020000A0912701B09128010197A109B10980931C
:10021000250190932601A0932701B0932801809196
:10022000250190912601A0912701B0912801892BE9
:100230008A2B8B2B91F40E94D80080910001909121
:100240000101A0910201B0910301809325019093D7
:100250002601A0932701B09328010000DF91CF91E0
:10026000FF91EF91BF91AF919F918F917F916F918E
:100270005F914F913F912F910F9000925B000F90F3
:1002800000925F000F901F901895CF93DF93CDB72A
:10029000DEB72C970FB6F894DEBF0FBECDBF6D83CF
:1002A0007E838F83988729873A874B875C878D81E8
:1002B0009E81AF81B88529853A854B855C85BC01D7
:1002C000CD010E94A30ADC01CB0189839A83AB8311
:1002D000BC8389819A81AB81BC81892B8A2B8B2B32
:1002E00029F489859A85AB85BC8511C089859A8555
:1002F000AB85BC858D839E83AF83B88789819A81C6
:10030000AB81BC8189879A87AB87BC87D0CFBC0182
:10031000CD012C960FB6F894DEBF0FBECDBFDF9196
:10032000CF910895CF93DF9300D01F92CDB7DEB762
:1003300089837B836A8389818A3031F48A819B81B6
:10034000BC018DE00E94920180EC90E0FC01808174
:10035000882F90E080729927892BB1F386EC90E08A
:100360002981FC01208380E090E00F900F900F9096
:10037000DF91CF910895CF93DF93CDB7DEB78AE7B2
:1003800090E02AE730E0F9012081206EFC01208313
:100390000000DF91CF910895CF93DF9300D000D07C
:1003A000CDB7DEB78B836C838C818130C1F51A8227
:1003B000198227C088E290E028E0FC01208388E2CF
:1003C00090E028E230E0F9012081422F2B81222F9A
:1003D00030E0098002C0359527950A94E2F7217034
:1003E000242BFC01208388E290E028E230E0F90130
:1003F00020812260FC01208389819A8101969A8361
:10040000898389819A810897ACF288E290E028E29A
:1004100030E0F90120812460FC0120833AC08C8106
:100420008230B9F51A82198227C088E290E020E272
:10043000FC01208388E290E028E230E0F90120818D
:10044000422F2B81222F30E0098002C0359527955D
:100450000A94E2F72170242BFC01208388E290E0CB
:1004600028E230E0F90120812260FC0120838981AB
:100470009A8101969A83898389819A810897ACF23F
:1004800088E290E028E230E0F90120812061FC015F
:10049000208388E290E028E230E0F9012081FC012D
:1004A000208300000F900F900F900F90DF91CF915D
:1004B0000895CF93DF931F92CDB7DEB7898380E88D
:1004C0009981981719F08981880F898389810F9004
:1004D000DF91CF910895CF93DF931F92CDB7DEB711
:1004E000898381E09981981719F08981869589839C
:1004F00089810F90DF91CF910895CF93DF931F9261
:10050000CDB7DEB789838EEF9981981721F0898165
:1005100086958068898389810F90DF91CF910895B6
:10052000CF93DF931F92CDB7DEB789838FEE99818A
:10053000981739F08981882F90E0880F991F816082
:10054000898389810F90DF91CF910895CF93DF93B5
:1005500000D0CDB7DEB79A83898389819A81892BB0
:1005600009F05BC09091290180917001981708F4FF
:1005700046C08091730118163CF480916A010E9474
:100580006B0280936A010AC080917301882334F45E
:1005900080916A010E94590280936A0180916C01E6
:1005A0008E3F51F48FEF80936E0180916C010E9419
:1005B000900280936C0123C080916C018F3E51F4B6
:1005C00081E080936E0180916C010E947D02809396
:1005D0006C0115C080916E0118163CF480916C017D
:1005E0000E947D0280936C010AC080916E01882375
:1005F00034F480916C010E94900280936C01809190
:1006000029018F5F8093290180912901843010F0A6
:10061000109229011A82198214C01A82198288E064
:1006200080936A0181E0809373018BEF80936C016A
:1006300010926E0183E08093290183E08093700122
:10064000000089819A810F900F90DF91CF910895DA
:10065000CF93DF9300D0CDB7DEB79A8389838981AA
:100660009A81892B79F588E790E0FC01808191815E
:1006700090932B0180932A0180917401883F71F03F
:1006800080912A0190912B018331924038F0809122
:1006900074010E947D028093740111C080917401E5
:1006A000833E69F080912A0190912B01843F914013
:1006B00030F4809174010E949002809374011A8238
:1006C000198209C01A82198281E080936F0181EF3B
:1006D00080937401000089819A810F900F90DF91BF
:1006E000CF910895CF93DF9300D000D0CDB7DEB780
:1006F0009C838B838B819C81892B09F0EDC0809139
:100700007101813009F0B8C080916A01803111F423
:1007100010922C0180916A01803209F0DAC0809138
:100720002C01882309F0D5C00E94240B2AE030E078
:10073000B9010E948F0A9A83898380916E018F3F4D
:1007400049F589819A81059724F089819A810797D3
:1007500061F480916D01833E09F48AC080916D013E
:100760000E94900280936D0183C089819A810697CF
:1007700029F089819A81099709F07AC080916D01E9
:10078000883F09F475C080916D010E947D028093BD
:100790006D016EC080916E01813049F589819A8129
:1007A000059724F089819A81079761F480916D0102
:1007B000883F09F45DC080916D010E947D028093A5
:1007C0006D0156C089819A81069729F089819A81A5
:1007D000099709F04DC080916D01833E09F448C02E
:1007E00080916D010E94900280936D0141C08981CA
:1007F0009A81059724F089819A810797B1F48091B5
:100800006D01883F39F480916D010E9490028093C0
:100810006D012DC080916D01833E49F580916D0180
:100820000E947D0280936D0122C089819A81069782
:1008300021F089819A810997D9F480916E018130E4
:1008400059F480916D01833E99F080916D010E9471
:10085000900280936D010CC080916D01883F41F042
:1008600080916D010E947D0280936D0101C00000A6
:1008700081E080932C012DC080916D01883F99F01B
:1008800083E290E0FC018081882F90E08095909534
:1008900087709927029739F480916D010E947D023B
:1008A00080936D0116C080916D01833E91F083E2CB
:1008B00090E0FC018081882F90E080959095877072
:1008C0009927019731F480916D010E9490028093E5
:1008D0006D011C821B820EC01C821B8280E88093EB
:1008E000720181EF80936D0110922C0181E0809361
:1008F000710100008B819C810F900F900F900F90E1
:10090000DF91CF910895CF93DF9300D0CDB7DEB7BD
:100910009A83898389819A81892B09F08FC3809179
:100920006A01823031F080916A01803411F01092B6
:100930002D0190912E0180917401981709F45AC0ED
:1009400080916A01823009F055C080912D01882381
:1009500009F050C09091740180912E01891790F494
:1009600080916E01813021F080916E01882351F4D5
:10097000809170018230D8F1809170018150809314
:10098000700135C09091740180912E01891770F427
:1009900080916E018F3F51F480917001833038F562
:1009A000809170018F5F8093700121C090917401DC
:1009B00080912E01981790F480916E018F3F21F065
:1009C00080916E01882351F480917001823078F01B
:1009D0008091700181508093700109C080917001F5
:1009E000833028F4809170018F5F8093700181E0E3
:1009F00080932D0180917401883F09F061C080913E
:100A00006A01823009F05CC080916C018E3F39F43C
:100A10008FEF809373018FEF80936E0142C18091BD
:100A20006C018D3FC1F48FEF8093730110926E01C2
:100A300080917001833008F034C180912D018823AA
:100A400009F02FC1809170018F5F8093700181E068
:100A500080932D0126C180916C018B3F61F48FEF53
:100A60008093730180916E01882309F01AC18FEF82
:100A700080936E0116C180916C01873FD9F48091FB
:100A80006E018823B9F08FEF809373018FEF80930D
:100A90006E0180917001823088F080912D01882351
:100AA00069F48091700181508093700181E080939E
:100AB0002D0104C082E080936B01F3C00000F1C0FF
:100AC00080917401813F09F089C080916A01823070
:100AD00009F084C080916C018E3FE9F480916E0131
:100AE0008823C9F08FEF8093730181E080936E01BA
:100AF00080917001823008F46DC080912D018823AF
:100B000009F068C08091700181508093700181E08C
:100B100080932D015FC080916C018D3F61F48FEF58
:100B20008093730180916E01882309F0BCC081E03D
:100B300080936E01B8C080916C018B3FC1F48FEF40
:100B40008093730110926E0180917001833008F0E0
:100B5000AAC080912D01882309F0A5C08091700161
:100B60008F5F8093700181E080932D019CC0809104
:100B70006C01873F61F48FEF8093730180916E0168
:100B8000882309F090C08FEF80936E018CC0809114
:100B90006C018F3ED9F480916E018823B9F08FEFFC
:100BA000809373018FEF80936E018091700182308A
:100BB00098F080912D01882379F480917001815003
:100BC0008093700181E080932D0106C082E08093C4
:100BD0006B0169C0000067C0000065C080917401AE
:100BE000833E09F063C080916A01823009F05EC0E3
:100BF00080916C018D3FE9F480916E018823C9F0EA
:100C00008FEF8093730181E080936E01809170017A
:100C1000823008F44AC080912D01882309F045C034
:100C20008091700181508093700181E080932D014B
:100C30003CC080916C018B3F59F48FEF809373011E
:100C400080916E01882391F581E080936E012EC022
:100C500080916C01873FB1F48FEF80937301109204
:100C60006E0180917001833008F580912D018823F9
:100C7000E9F4809170018F5F8093700181E080932F
:100C80002D0114C080916C018F3E39F48FEF809359
:100C9000730181E080936E0109C082E080936B0153
:100CA00005C0000003C0000001C0000090912F01AA
:100CB00080916D01981709F45AC080916A018034BF
:100CC00009F055C080912D01882309F050C0909102
:100CD0006D0180912F01891790F480916E01813010
:100CE00021F080916E01882351F48091700182304F
:100CF000D8F18091700181508093700135C090913E
:100D00006D0180912F01891770F480916E018F3FE2
:100D100051F480917001833038F5809170018F5FBC
:100D20008093700121C090916D0180912F019817DF
:100D300090F480916E018F3F21F080916E018823A5
:100D400051F480917001823078F08091700181506F
:100D50008093700109C080917001833028F48091E4
:100D600070018F5F8093700181E080932D018091ED
:100D70006D01883F09F061C080916A01803409F0FB
:100D80005CC080916C018E3F39F481E080937301E7
:100D90008FEF80936E0142C180916C018D3FC1F451
:100DA00081E08093730110926E0180917001833015
:100DB00008F034C180912D01882309F02FC1809162
:100DC00070018F5F8093700181E080932D0126C1B7
:100DD00080916C018B3F61F481E08093730180917D
:100DE0006E01882309F01AC18FEF80936E0116C13E
:100DF00080916C01873FD9F480916E018823B9F00E
:100E000081E0809373018FEF80936E018091700178
:100E1000823088F080912D01882369F480917001DF
:100E200081508093700181E080932D0104C081E0A6
:100E300080936B01F3C00000F1C080916D01813F90
:100E400009F089C080916A01803409F084C08091E2
:100E50006C018E3FE9F480916E018823C9F081E036
:100E60008093730181E080936E01809170018230E4
:100E700008F46DC080912D01882309F068C080912D
:100E8000700181508093700181E080932D015FC0DB
:100E900080916C018D3F61F481E0809373018091BA
:100EA0006E01882309F0BCC081E080936E01B8C058
:100EB00080916C018B3FC1F481E0809373011092AB
:100EC0006E0180917001833008F0AAC080912D01DD
:100ED000882309F0A5C0809170018F5F8093700115
:100EE00081E080932D019CC080916C01873F61F46B
:100EF00081E08093730180916E01882309F090C096
:100F00008FEF80936E018CC080916C018F3ED9F47D
:100F100080916E018823B9F081E0809373018FEF97
:100F200080936E0180917001823098F080912D0144
:100F3000882379F48091700181508093700181E061
:100F400080932D0106C081E080936B0169C0000091
:100F500067C0000065C080916D01833E09F063C0E9
:100F600080916A01803409F05EC080916C018D3FF0
:100F7000E9F480916E018823C9F081E080937301C8
:100F800081E080936E0180917001823008F44AC044
:100F900080912D01882309F045C080917001815016
:100FA0008093700181E080932D013CC080916C01A1
:100FB0008B3F59F481E08093730180916E01882307
:100FC00091F581E080936E012EC080916C01873F86
:100FD000B1F481E08093730110926E0180917001F1
:100FE000833008F580912D018823E9F48091700108
:100FF0008F5F8093700181E080932D0114C08091F8
:101000006C018F3E39F481E08093730181E080931D
:101010006E0109C081E080936B0105C0000003C030
:10102000000001C0000080916D0180932F0180912C
:10103000740180932E011A8219820DC01A821982BE
:1010400010926B0110922D0181EF80932F0181EF9F
:1010500080932E01000089819A810F900F90DF917B
:10106000CF910895CF93DF9300D0CDB7DEB79A83A9
:10107000898389819A81892B19F41A82198206C081
:101080001A82198280E880933001000089819A8158
:10109000892B09F05CC080916B018823E1F5809178
:1010A0003001803849F48091720180933101809140
:1010B0006D018093320122C080913001813049F46A
:1010C00080916F018093310180917401809332018E
:1010D00015C090916A01809130018923882349F0DD
:1010E00080916A018093310180916C01809332017B
:1010F00005C0109231018FEF809332018091300151
:10110000869580933001809130018823A9F480E88E
:101110008093300111C080916B01823039F480EFEF
:101120008093310180EE8093320106C08FE080937E
:10113000310180EE809332018091310161E00E94A3
:10114000CC018091320162E00E94CC0100008981D3
:101150009A810F900F90DF91CF9108950F931F9375
:10116000CF93DF93CDB7DEB763970FB6F894DEBFAA
:101170000FBECDBF84E290E0FC01108285E290E0DA
:101180002FEFFC01208387E290E02FEFFC0120830A
:1011900088E290E0FC0110820E94BB018AE0EAE153
:1011A000F1E0DE011A9601900D928A95E1F785E053
:1011B00090E098878F838FEF8987898580933301AB
:1011C0008BE490E0A0E0B0E080933401909335018F
:1011D000A0933601B093370180913401909135018D
:1011E000A0913601B0913701809338019093390175
:1011F000A0933A01B0933B0186EA92E090933D01BF
:1012000080933C01898580933E0186E990E0A0E0CF
:10121000B0E080933F0190934001A0934101B093CF
:10122000420180913F0190914001A0914101B09114
:1012300042018093430190934401A0934501B093F0
:10124000460188E293E090934801809347018985A5
:101250008093490186E990E0A0E0B0E080934A01E4
:1012600090934B01A0934C01B0934D0180914A01A2
:1012700090914B01A0914C01B0914D0180934E0192
:1012800090934F01A0935001B093510182E793E0F6
:10129000909353018093520189858093540182E396
:1012A00090E0A0E0B0E08093550190935601A093A8
:1012B0005701B09358018091550190915601A0912A
:1012C0005701B09158018093590190935A01A0930E
:1012D0005B01B0935C0183E894E090935E0180939E
:1012E0005D01898580935F0181E090E0A0E0B0E03E
:1012F0008093600190936101A0936201B0936301B8
:101300008091600190916101A0916201B0916301AF
:101310008093640190936501A0936601B093670187
:1013200082E398E090936901809368018A859B85A8
:10133000FC0181819281A381B48189839A83AB83EB
:10134000BC8381E090E09E838D8325C08D819E814A
:10135000880F991F9E012F5F3F4F820F931F0996A1
:10136000FC0180819181FC01218132814381548182
:1013700089819A81AB81BC81BC01CD010E9445016C
:10138000DC01CB0189839A83AB83BC838D819E81F1
:1013900001969E838D832D813E818F8198852817AC
:1013A0003907A0F289819A81AB81BC81BC01CD0152
:1013B0000E9467000E9495001E821D82A0C08D8140
:1013C0009E81880F991F9E012F5F3F4F820F931FB1
:1013D0000996FC0180819181FC012581368147813C
:1013E00050858D819E81880F991FBE016F5F7F4F51
:1013F000860F971F0996FC0180819181FC018181F4
:101400009281A381B481281739074A075B0709F045
:1014100045C08D819E81880F991F9E012F5F3F4F90
:10142000820F931F0996FC01008111818D819E819D
:10143000880F991F9E012F5F3F4F820F931F0996C0
:10144000FC0180819181FC01218532858D819E8105
:10145000880F991FAE014F5F5F4F840F951F09964C
:10146000FC0180819181FC018081082E000C990B88
:10147000F9010995F80180838D819E81880F991F5C
:101480009E012F5F3F4F820F931F0996FC018081C1
:101490009181FC0115821682178210868D819E81B2
:1014A000880F991F9E012F5F3F4F820F931F099650
:1014B000FC01608171818D819E81880F991F9E0141
:1014C0002F5F3F4F820F931F0996FC01808191810E
:1014D000FC01258136814781508589819A81AB81C4
:1014E000BC81820F931FA41FB51FFB0185839683C8
:1014F000A783B0878D819E8101969E838D832D81E8
:101500003E818F8198852817390708F458CF00004D
:10151000809124018823E1F3109224014DCF97FBA1
:10152000072E16F4009407D077FD09D00E94C50A53
:1015300007FC05D03EF4909581959F4F08957095D6
:1015400061957F4F0895A1E21A2EAA1BBB1BFD01D6
:101550000DC0AA1FBB1FEE1FFF1FA217B307E40792
:10156000F50720F0A21BB30BE40BF50B661F771FEA
:10157000881F991F1A9469F76095709580959095CA
:101580009B01AC01BD01CF010895AA1BBB1B51E11A
:1015900007C0AA1FBB1FA617B70710F0A61BB70BE3
:1015A000881F991F5A95A9F780959095BC01CD0188
:1015B00008958F929F92AF92BF92CF92DF92EF9257
:1015C000FF92CF93DF93EC01688179818A819B81BF
:1015D000611571058105910521F464E279ED8BE5D2
:1015E00097E02DE133EF41E050E00E94330B4901D9
:1015F0005A019B01AC01A7EAB1E40E94520B6B01B6
:101600007C01ACEEB4EFA50194010E94600BDC01FB
:10161000CB018C0D9D1DAE1DBF1DB7FF03C00197F3
:10162000A109B04888839983AA83BB839F77DF9100
:10163000CF91FF90EF90DF90CF90BF90AF909F90B1
:101640008F9008950C94D90A82E191E00C94D90A04
:10165000A0E0B0E08093120190931301A0931401D5
:10166000B09315010895052E97FB1EF400940E9477
:101670004A0B57FD07D00E94A30A07FC03D04EF483
:101680000C944A0B50954095309521953F4F4F4F04
:101690005F4F089590958095709561957F4F8F4F1E
:1016A0009F4F08950E94650BA59F900DB49F900DCC
:1016B000A49F800D911D11240895B7FF0C94520B27
:1016C0000E94520B821B930B0895A29FB001B39FFF
:1016D000C001A39F700D811D1124911DB29F700D3B
:0C16E000811D1124911D0895F894FFCF86
:1016EC000100000000000002000000009201000058
:1016FC00000001000000FEEF800133013E014901B2
:04170C0054015F0124
:00000001FF
